:1009E80001310101410201300F013D80013EC0018A
:1009F8004210013C14013B1801431C013A08013F15
:040A08000C0140009D
:100A4F00E4FDFCC3ED9FEC9E5015E4FBFA0BBB00DD
:0F0A5F00010AEB64354A70F50DBD00010C80E40F
:010A6E002265
:0C0A9F00D2A47F047E00120A4FC2A422E1
:100A0D00A90775A080C2A4C2A6E954F0FFC4540F73
:100A1D004480F5A0120A9FE9540F4480F5A0020A04
:010A2D009F29
:100A6F00C2A4C2A675A082120A9FAF31120A0DAF9F
:090A7F0030120A0DAF41020A0D0C
:100A2E00A90775A0C0C2A4D2A6E954F0FFC4540F02
:100A3E0044C0F5A0120A9FE9540F44C0F5A0020A63
:010A4E009F08
:0609BB008B2C8A2D892E11
:1009C100E4F52FAB2CAA2DA92E120941FF601712B5
:1009D1000A2E7401252EF52EE4352DF52D052FE572
:0609E1002FC3941040DD5D
:0109E70022ED
:060800008B098A0A890B36
:10080600E4FEFDAB09AA0AA90B8E827583001209C4
:100816005AFFEDD3940FEF75F0644034842430FC16
:10082600740C2DF8A604EF75F06484AFF0EF75F044
:100836000A842430FC740D2DF8A604EF75F00A84A2
:10084600AFF0EF2430FC740E2DF8A604740F80323E
:10085600842430FC740C2DF8A604EF75F06484AF84
:10086600F0EF75F00A842430FC740D2DF8A604EF21
:1008760075F00A84AFF0EF2430FC740E2DF8A60450
:10088600740F2DF8762074042DFD0EEE64086003B7
:10089600020809AF3D120A0D7B007A00790C120995
:0F08A600BBAF3E120A0D7B007A00791C0209BB22
:100A88008F80D2B6C2B67F027E00120A4F7580FFF1
:060A9800D2B7AF80C2B727
:010A9E002235
:10098700E4F508C2B7C2B6120A6FE4F508AF081259
:100997000A8874322508F8A6070508E508C39408ED
:1009A70040EB7B007A0079321208007FF47E011257
:0409B7000A4F80D68D
:030000000208B53E
:0C08B500787FE4F6D8FD7581430208FC52
:10094100BB010689828A83E0225002E722BBFE02B4
:09095100E32289828A83E49322E7
:10095A00BB010CE58229F582E5833AF583E0225052
:10096A0006E92582F8E622BBFE06E92582F8E2229C
:0D097A00E58229F582E5833AF583E49322B6
:1008C100020987E493A3F8E493A34003F68001F2BD
:1008D10008DFF48029E493A3F85407240CC8C33338
:1008E100C4540F4420C8834004F456800146F6DF07
:1008F100E4800B01020408102040809009E8E47EA6
:10090100019360BCA3FF543F30E509541FFEE493FB
:10091100A360010ECF54C025E060A840B8E493A3C2
:10092100FAE493A3F8E493A3C8C582C8CAC583CAED
:10093100F0A3C8C582C8CAC583CADFE9DEE780BEA5
:010A0C0000E9
:00000001FF
